:020000040800F2
:10000000E81F0020450100085D2E0008FD250008BE
:10001000B52C0008D70E0008794700080000000042
:10002000000000000000000000000000793A000815
:100030005F110008000000002D2F0008EB3C0008B5
:100040005F0100085F0100085F0100085F01000810
:100050005F0100085F0100085F0100085F01000800
:100060005F0100085F0100085F010008250F00081C
:100070005F0100085F0100085F010008390F0008F8
:100080005F0100085F010008E70A00085F0100083F
:100090005F0100085F0100085F010008C920000837
:1000A0005F0100085F0100085F010008B53D00081E
:1000B000D13D00085F010008053E00085F0100080F
:1000C0005F0100085F0100085F0100085F01000890
:1000D0005F010008E14400085F0100085F010008BB
:1000E0005F0100085F0100085F0100085F01000870
:1000F0005F0100085F0100085F0100085F01000860
:100100005F0100085F0100085F0100085F0100084F
:100110005F0100085F0100085F0100085F0100083F
:100120005F0100085F0100085F0100085F0100082F
:10013000DFF80CD000F09AFC004800473974000842
:10014000E81F00200648804706480047FEE7FEE714
:10015000FEE7FEE7FEE7FEE7FEE7FEE7FEE7FEE777
:10016000ED3C000831010008F0B480EA0102D40F30
:100170004200B2EB410F02D20246084611464A0045
:1001800042D0C30DDDB2C1F3C752AD1A202D35DA0E
:10019000C1F3160141F4000204B15242C5F1200638
:1001A00002FA06F12A411044B3EBD05F23D0C4B168
:1001B000012DA0EBC35009DCF0BC4FF0004202EA75
:1001C000C352DBB200F5000000F05CBB400000F160
:1001D000807000EBC350A0F1807040EAD1704900FC
:1001E00009E0490841EAC071A0EBC35000F50000E6
:1001F000400800EBC350F0BC00F03BBB6142012261
:1002000002EB4101001BF6E7F0BC704781F00041B2
:10021000AAE780F00040A7E780EA010210B502F0EB
:100220000043400022D04A001FD0010E01EB1261B2
:10023000C0F35600C2F3560240F4000042F400023C
:10024000A0FB022000047F39140400D0401C50EAB7
:10025000124001D44000491EC2B20C0604EBD0107B
:10026000401C4008802A02D003E0002010BD20F08E
:100270000100002900DA0020184310BD30B480EAE4
:10028000010202F0004530F0004221F0004013D09E
:1002900090B1C30DD40DC2F31601C0F31600E41AD9
:1002A00041F4000140F400027D34914201D3641C0A
:1002B00000E04900002C02DA30BC002070474FF407
:1002C00000000023914201D3891A034340084FEAFA
:1002D0004101F7D151B1914202D14FF0004105E007
:1002E00002D24FF0010101E06FF0010103EBC450B5
:1002F000284430BC00F0BDBA2DE9FE4F804681EAAB
:100300000300C00F0C46009021F0004123F000458F
:10031000B8EB0200A94105D24046214690461C4652
:100320000B46024623F00040104347D0270DC7F389
:100330000A00C3F30A510290401A019040286BDA78
:10034000C3F3130040F4801B0098924620B10023B1
:10035000D2EB030A63EB0B0B01985946C0F1400244
:10036000504600F055FA06460D4650465946019A49
:1003700000F06DFA10EB08006141002487EA115289
:1003800084EAE7731A4340D0009A62B3019A012AC3
:100390004FEA075215DC001B61EB02014FF00042EF
:1003A00002EA0752CDE90042001C41F580113246B5
:1003B0002B4600F0A4FA03B0BDE8F08F404621467A
:1003C000F9E7001B61EB0201001C41F580130018E6
:1003D0005B412018A2F5001747EB030140EAD570F6
:1003E000B6196D4111E06D084FEA360645EAC07551
:1003F0004FEA0752001B61EB0201001C41F580111E
:1004000049084FEA30000019514132462B4603B0EB
:10041000BDE8F04F00F064BA0098012240000023CC
:10042000D0EB020263EBE073009821464FEAE074E0
:10043000B8EB000061EB0401E9E783F000435BE700
:1004400081F0004158E72DE9FE4F81EA030404F0F2
:10045000004421F0004100944FF0000B23F00043D2
:1004600050EA01045ED052EA03045BD0C3F30A549D
:10047000C1F30A552C44A4F2F3340194A0FB0254B6
:10048000C1F3130141F48011C3F3130343F4801348
:1004900001FB024400FB034E840A970A44EA81549C
:1004A00047EA8357A4FB076802958D0A05FB078579
:1004B0004FEA932C04FB0C542705029D4FEA065883
:1004C00047EA1637B5EB08056EEB070C870E920E60
:1004D00047EA811742EA8312A7FB0201B6EB0B0140
:1004E00064EB00042B0D43EA0C335E1844EB1C5004
:1004F000DA465146E7FB0201C5F313044FEA0B331A
:1005000043EA14534FEA0432019C43EA0603A4F180
:100510000C040294009CCDE900B400F0F0F903B0A3
:10052000BDE8F08F00200146F9E72DE9F04D81EAA2
:10053000030404F0004B21F0004514464FF0000A7C
:1005400023F0004150EA050220D054EA01021DD0F8
:10055000C5F30A570246C5F31303C1F31300C1F3F1
:100560000A5640F4801543F48013A7EB0608101BCD
:10057000D64608F2FD3873EB050002D308F10108F6
:1005800001E092185B41B8F1000F03DA0020014648
:10059000BDE8F08D00204FF48011064684460EE041
:1005A000171B73EB050705D3121B63EB050306430B
:1005B0004CEA010C49084FEA300092185B4150EABE
:1005C0000107EDD152EA030012D082EA040083EA67
:1005D0000501084305D0101BAB4106D201220023C0
:1005E00006E000224FF0004302E06FF001025310DA
:1005F0001AEB06004CEB085110EB0A0041EB0B0123
:10060000BDE8F04D00F06CB9C10F80EAE07008441D
:10061000CA079623002100F035B99623002211461F
:1006200000F030B90EB5C10F80EAE0700844CA0787
:10063000002140F233438DE80E000A460B4600F0DD
:100640005EF903B000BD0EB540F2334102910021C6
:10065000CDE900110A460B4600F051F903B000BD88
:1006600000F0004220F00040C10DC0F3160040F43D
:1006700000007F2901DA00207047962903DCC1F1D0
:100680009601C84001E096398840002AF4D04042E3
:10069000704720F00040C10DC0F3160040F4000088
:1006A0007F2901DA00207047962903DCC1F1960109
:1006B000C840704796398840704770B5C1F30A52F8
:1006C00001F000450024C1F3130140F2FF3341F46F
:1006D00080119A4201DA002070BD40F233439A4201
:1006E000A2F2334203DC524200F0A1F800E0904055
:1006F0002C43F1D0404270BDC1F30A5210B5C1F392
:10070000130140F2FF3341F480119A4201DA0020D4
:1007100010BD40F233439A42A2F2334203DC52420C
:1007200000F085F810BD904010BD00F0004230F0A0
:1007300000400AD0C10D01F56071C0F3160042EA15
:100740000151C2084007114370470020014670471D
:1007500030B5041E71F1000404DB4FF00044404248
:1007600064EB0101141E73F1000405DB1C464FF01D
:100770000043524263EB04038B4208BF824230BD08
:1007800030B5041E71F1000404DB4FF00044404218
:1007900064EB0101141E73F1000405DB1C464FF0ED
:1007A0000043524263EB0403994208BF904230BDBC
:1007B00001F0004330B421F0004150EA010206D0BC
:1007C0000A0DA2F56072C1F31301002A02DC30BCED
:1007D00000207047440F44EAC104C100E01830BC57
:1007E00000EBC25000F045B8002801DBC0F100402A
:1007F000002901DBC1F1004181427047002801DB83
:10080000C0F10040002901DBC1F10041884270477E
:10081000202A04DB203A00FA02F1002070479140C0
:10082000C2F1200320FA03F3194390407047202AB5
:1008300004DB203A21FA02F00021704721FA02F38A
:10084000D040C2F120029140084319467047202A47
:1008500006DBCB17203A41FA02F043EAE07306E0E8
:1008600041FA02F3D040C2F12002914008431946F8
:1008700070470029A8BF7047401C490008BF20F0FE
:100880000100704710B4B0FA80FC00FA0CF050EA96
:10089000010404BF10BC704749B1CCF1200421FA17
:1008A00004F411FA0CF118BF012121430843A3EB12
:1008B0000C01CB1D4FEA00614FEA102042BF00201F
:1008C00010BC704700EBC35010440029A4BF10BCFB
:1008D0007047401C490008BF20F0010010BC704761
:1008E00010B5141E73F1000408DA401C41F1000138
:1008F00092185B411A4301D120F0010010BD2DE98F
:10090000F04D92469B4611B1B1FA81F202E0B0FA85
:1009100080F220329046FFF77BFF04460F4640EA04
:100920000A0041EA0B0153465A46084313D01146C8
:1009300053EA010019D0C8F140025046FFF777FF93
:1009400005460E46504659464246FFF761FF0843AA
:1009500005D0012004E020463946BDE8F08D002096
:10096000054346EAE0762C4337430A986305E40AD8
:10097000A0EB08000022FD0A44EA47540A3002D5E1
:1009800000200146E9E7010510196941DDE9084544
:1009900000196941BDE8F04DA2E770B521F00043B0
:1009A00003430CD0C1F30A550024D5EB040564EBD6
:1009B0000403D617AD1AB34102DB0020014670BD17
:1009C000201841EB025170BD2DE9F04D00231A466D
:1009D0001B1A8A4103DB00200146BDE8F08DC1F3FC
:1009E0000A52C1F3130141F480154FF0000BD107F7
:1009F00002D100186D41521E0027044640F2FF113B
:100A0000384601EB620A3E468046024600204FF41B
:100A10008011FFF70CFFC2197141BB1846EB0100B2
:100A2000B4EB030C75EB000C04D3E41A65EB000582
:100A300017460E46241908F101006D4180463428FE
:100A4000E3DDF91946EB0600091BA84103D24FF07C
:100A5000FF32134601E0002213461BEB070046EB72
:100A60000A51BDE8F04DFFF73BBF0000064C074DB3
:100A700006E0E06840F0010394E80700984710346E
:100A8000AC42F6D3FFF758FB68BA000888BA0008F2
:100A900070B58C1810F8015B15F0070301D110F840
:100AA000013B2A1106D110F8012B03E010F8016B6D
:100AB00001F8016B5B1EF9D12B0705D40023521EF0
:100AC0000DD401F8013BFAE710F8013BCB1A921C58
:100AD00003E013F8015B01F8015B521EF9D5A14256
:100AE000D8D3002070BD704700B599B000214FF0F9
:100AF000006002F011FA4FF4C06002F003FA0B201C
:100B00008DF8600000208DF861008DF862000120F2
:100B10008DF8630018A802F0BDF90121C80202F0A7
:100B20007FFA814803F098F915A803F03FFB48F6D7
:100B30009F40ADF858000120ADF854000020ADF8FA
:100B40005A00ADF8560015A9774803F0DDFA602089
:100B5000ADF844000120ADF84600ADF84A0002208F
:100B6000ADF84C000020ADF84800ADF84E00ADF8EF
:100B70005000ADF8520011A96B4803F079FA012139
:100B8000084602F01DFA694800F018FA6848069015
:100B900068480790002008900E20099000200A90D5
:100BA00080200B9040000C9080000D9020200E9033
:100BB00000020F900020109006A95C4800F0B1FAE6
:100BC00001220221594800F0A3FA0121574800F000
:100BD000E9F90121480202F023FA002001900120E6
:100BE0008DF8080000208DF80900039004900E2075
:100BF0008DF8140001A94E484C3800F0D3F80623B4
:100C000001220A214A484C3800F0F4F80623022257
:100C10000B2147484C3800F0EDF8062303220C2145
:100C200043484C3800F0E6F8062304220D214048E2
:100C30004C3800F0DFF80623052200213C484C38F0
:100C400000F0D8F806231A46012139484C3800F044
:100C5000D1F806230722022135484C3800F0CAF8A3
:100C600006230822032132484C3800F0C3F806233B
:100C7000092219462E484C3800F0BCF806230A22F7
:100C800007212B484C3800F0B5F806230B220E2123
:100C900027484C3800F0AEF806230C220F212448D8
:100CA0004C3800F0A7F806230D22082120484C38C4
:100CB00000F0A0F806230E2209211D484C3800F050
:100CC00099F801211A484C3800F04CF801211848D5
:100CD0004C3800F03CF8012115484C3800F02CF855
:100CE00013484C3800F0E2F800BF11484C3800F0CF
:100CF0004EF80028F9D10E484C3800F0E7F800BF54
:100D00000B484C3800F039F80028F9D10121064889
:100D100003F087F80121044803F08FF8022000F067
:100D200025F919B000BD0000002C01400800024068
:100D30004C240140C401002021B1826842F001022C
:100D4000826003E0826822F001028260704721B174
:100D5000826842F48072826003E0826822F48072CA
:100D60008260704721B1826842F48012826003E0A1
:100D7000826822F4801282607047014600208A68EF
:100D800002F004020AB1012000E000207047014691
:100D900000208A6802F008020AB1012000E0002069
:100DA0007047000030B502460020002350680F4C09
:100DB00020400D790C6844EA052420435060906877
:100DC0000B4C2040D1E902542C434D7944EA4504B0
:100DD00020439060D06A20F470000C7C641EE4B262
:100DE000234340EA0350D06230BD0000FFFEF0FF15
:100DF000FDF7F1FFF0B504460D4600200021092D56
:100E000011DDE068A5F10A0606EB4607072606FA9B
:100E100007F18843A5F10A0606EB460603FA06F138
:100E20000843E0600CE0206905EB4507072606FA59
:100E300007F1884305EB450603FA06F108432061F4
:100E4000072A0FDA606B561E06EB86071F2606FA86
:100E500007F18843561E06EB860605FA06F108439D
:100E6000606322E00D2A0FDA206BD61F06EB86079F
:100E70001F2606FA07F18843D61F06EB860605FAF9
:100E800006F10843206310E0E06AA2F10D0606EBCC
:100E900086071F2606FA07F18843A2F10D0606EB26
:100EA000860605FA06F10843E062F0BD816841F06C
:100EB00008018160704721B1826842F4A00282601B
:100EC00003E0826822F4A00282607047816841F0EA
:100ED00004018160704700BFFEE70000F0B50C46DA
:100EE000FF25FF2609E010F8017B87EA0501074F7F
:100EF0007F5C87EA0605064F7E5C271EA4F1010C85
:100F00001FFA8CF4EFD115701E70F0BD20B60008EA
:100F100020B7000810B501F07FFE03F0C7FC03F016
:100F20003FFD10BD10B54FF6FF700249486002F05A
:100F30003DFA10BD0000024010B54FF4003000F043
:100F400023F84FF4002000F01FF80021064800F0BD
:100F500029F84FF4007004495839C8650121024846
:100F600000F020F810BD00005800024000F0805151
:100F700011B10349086001E0024948607047000070
:100F8000040402400000024000F0805111B1034906
:100F9000086001E002494860704700000404024014
:100FA0000000024021B1026842F00102026004E048
:100FB00002684FF6FE731A400260704701684FF6F0
:100FC000FE72114001600021016041608160C160DA
:100FD0004B49884208D14A490839496841F00F0114
:100FE000474A083A51608AE045491431884208D19D
:100FF00043490839496841F0F001414A083A5160D3
:101000007DE03F492831884208D13D490839496887
:1010100041F470613A4A083A516070E038493C3115
:10102000884208D136490839496841F47041344A48
:10103000083A516063E032495031884208D1304962
:101040000839496841F470212D4A083A516056E048
:101050002B496431884208D129490839496841F44B
:101060007001274A083A516049E0254978318842A1
:1010700008D123490839496841F07061204A083A8B
:1010800051603CE01F49884206D1011F096841F0C8
:101090000F01021F116032E01A491431884208D151
:1010A0001849091F096841F0F001164A121F116022
:1010B00025E014492831884208D11249091F0968DE
:1010C00041F470610F4A121F116018E00D493C3164
:1010D000884208D10B49091F096841F47041094A47
:1010E000121F11600BE007495031884207D10549B2
:1010F000091F096841F47021024A121F11607047EC
:1011000008000240080402400146486880B2704767
:101110001AB103680B43036002E003688B4303606A
:10112000704710B50022026847F6F0739A430C6AC4
:101130008B6823430C6923434C6923438C69234305
:10114000CC6923434C6A23438C6A23431A430260CD
:10115000CB6843600B6883604B68C36010BD704709
:1011600001E0401E00BF0028FBD1704710B50446C7
:1011700003E06420FFF7F4FF641E002CF9D110BDDA
:1011800010B5044605E042F6DE60FFF7E9FF601E99
:1011900084B2002CF7D110BD10B50E4B00220221F5
:1011A000012001F0C9FB0B4B08330022062102206D
:1011B00001F042FB074B103300220721032001F00E
:1011C0003BFB044B183300220221042001F0B4FB46
:1011D00010BD00003AB3000810B51148114B0ECBFA
:1011E0000EC0114B00220221012001F0A5FB0E4B85
:1011F000DB1D00221146022001F01EFB0A4B0E33BC
:1012000000221146032001F017FB074B1533002283
:101210001146042001F010FB01200149487110BD66
:1012200048020020AC000020D8B100082DE9F041B0
:101230008CB007460020FD4908601021FC4801F0F1
:10124000D7F901F0B9FCFB48007870B901208DF89E
:10125000000040208DF801006B460022114601205D
:1012600001F06AFB0CB0BDE8F0816F2F12D1F1489C
:1012700040780A2190FBF1F0C0B28DF80100ED48F2
:10128000407890FBF1F201FB1200C0B28DF8020031
:10129000E94D26E00A2097FBF0F0C0B28DF801007E
:1012A0000A2097FBF0F100FB1170C0B28DF802002C
:1012B000E0484078B84204DBDE484078C01BC4B246
:1012C00004E0DC4840784030C01BC4B204EBC400EA
:1012D00000EB400000F6BA311B2205A801F0CCF962
:1012E00005AD002405E01F21E01C0DF80010601C76
:1012F000C4B2082CF7DB002416E0285D010904EBDA
:1013000044000B300DF80010285D00F00F0104EBD5
:1013100044000C300DF800100A2104EB44000D309D
:101320000DF80010601CC4B2032CE6DB12208DF80F
:1013300000006B4600221146012001F07DFA0024D6
:1013400018E0E01C285C010904EB4400401C0DF887
:101350000010E01C285C00F00F0104EB4400801C2E
:101360000DF800100A2104EB4400C01C0DF8001019
:10137000601CC4B2042CE4DB0B208DF800006B462B
:1013800000220A21022001F057FA287A022874D19B
:101390000024A87B062850D2DFE800F0030E1926AF
:1013A00034410A208DF800000B208DF801000C203C
:1013B0008DF80A00022440E00A208DF800000F207A
:1013C0008DF8010010208DF80A00022435E00B2072
:1013D0008DF800008DF8010000208DF802000C202F
:1013E0008DF80B00032428E00B208DF800000F205F
:1013F0008DF8010000208DF8020010208DF80B0000
:1014000003241AE00B208DF800008DF80100022063
:101410008DF802000C208DF80B0003240DE00B204A
:101420008DF800000F208DF8010002208DF80200D9
:1014300010208DF80B00032400BF00BF1C200DF806
:101440000400697B287B01EB00200FFA80F81F2144
:10145000601C0DF800104646002E01DA704206B2FC
:1014600042F2107096FBF0F0C1B2A01C0DF8001013
:101470001DF8000010B91F2003E077E0A01C1DF844
:101480000000A11C0DF8010042F2107096FBF0F173
:1014900000FB11604FF47A7190FBF1F0C1B2E01CD7
:1014A0000DF80010A01C1DF800001F280BD1E01C37
:1014B0001DF8000008B91F2002E0E01C1DF8000024
:1014C000E11C0DF801004FF47A7096FBF0F100FB7F
:1014D0001160642190FBF1F0C1B2201D0DF80010E5
:1014E0000A21601D0DF80010642096FBF0F100FB4E
:1014F00011600A2190FBF1F0C1B2A01D0DF800109F
:101500000A2096FBF0F100FB1160C1B2E01D0DF85E
:101510000010B8F1000F16DAE01C1DF800001F28BB
:1015200004D12021E01C0DF800100CE09DF804000F
:101530001F2804D12021601C0DF8001003E0202199
:10154000601C0DF800106C7A3C48005D00EBC00098
:101550003B49431800221146032001F0EDF96B4688
:1015600000220521042001F067F97BE6287A012892
:101570005BD1687A0F281BD152208DF805003920E5
:101580008DF8060006208DF8000013208DF801006C
:1015900024208DF8020062208DF8030063208DF86E
:1015A00004006B4600220221042001F0C5F959E62F
:1015B000687A08287AD2DFE800F004111E2B455221
:1015C0005F6C23208DF8010064208DF802005E20FE
:1015D0008DF8030021208DF8040067E022208DF8AB
:1015E000010064208DF802005E208DF803002120A8
:1015F0008DF804005AE05F208DF8010060208DF81E
:10160000020061208DF8030044208DF804004DE0B5
:1016100084208DF8010082208DF8020083208DF84F
:10162000030044208DF8040040E060E078010020D1
:101630000018014008000020CB02002016B400086A
:101640006EB400087E208DF8010082208DF8020023
:1016500083208DF8030044208DF8040026E0342018
:101660008DF8010089208DF802008A208DF8030092
:101670008B208DF8040019E085208DF8010086206C
:101680008DF8020087208DF8030088208DF8040073
:101690000CE085208DF8010086208DF802003320B3
:1016A0008DF8030088208DF8040000BF00BF44209F
:1016B0008DF805008DF8060065208DF80800287B60
:1016C00030B122208DF8070023208DF8090005E0B5
:1016D00023208DF8070022208DF8090009208DF8BD
:1016E00000006B4600221146042001F025F900BFDE
:1016F000B8E50000F0B58DB0054601F05DFA0220B6
:101700008DF804000A2095FBF0F0C0B28DF80500BA
:101710000A2095FBF0F100FB1150C0B28DF80600D5
:1017200001AB00221146012001F086F82E484078D6
:10173000A84204DB2C484078401BC6B204E02A488B
:1017400040781E30401BC6B206EBC60000EB4000DE
:1017500000F6BA311B2206A800F08EFF06AC0B2063
:101760008DF805000C208DF806001C208DF8070070
:101770000C208DF80E000A208DF80400217CE07BFF
:1017800001EB002007B202A9384601F00AF801ABCC
:1017900000220421022001F04FF80D208DF80600F0
:1017A000A17C607C01EB002007B202A9384600F062
:1017B000F8FF01AB00220421032001F03DF80E20C8
:1017C0008DF80600217DE07C01EB002007B202A924
:1017D000384600F0E6FF01AB00220421084601F084
:1017E0002BF80DB0F0BD000008000020F0B58DB062
:1017F000054601F0E1F902208DF804000A2095FB6E
:10180000F0F0C0B28DF805000A2095FBF0F100FB66
:101810001150C0B28DF8060001AB00221146012024
:1018200001F00AF834484078A84204DB3248407896
:10183000401BC6B204E0304840781E30401BC6B2A0
:1018400006EBC60000EB400000F6BA311B2206A8EA
:1018500000F012FF06AC0F208DF805000C208DF86B
:1018600006000D208DF807001C208DF808001020C0
:101870008DF80F000B208DF80400A17D607D01EB39
:10188000002007B20DF10901384600F08AFF01ABD4
:1018900000220421022000F0CFFF0D208DF8060069
:1018A0000E208DF80700217EE07D01EB002007B2BD
:1018B0000DF10901384600F074FF01AB002204214C
:1018C000032000F0B9FF0E208DF806000C208DF8E3
:1018D0000700A17E607E01EB002007B20DF1090137
:1018E000384600F05EFF01AB00220421084600F0FC
:1018F000A3FF0DB0F0BD00000800002000B589B0C6
:1019000034A00068089034A00068079033A00068F5
:10191000069033A00068059032A00068049032A0C1
:101920000068039031A00068029031A00068019027
:101930003048407911282CD008DC01280DD005282A
:1019400012D0092817D00D283FD11BE0142827D02A
:1019500017282CD01A2838D130E0032308AA0021F8
:10196000022000F081FA31E0032307AA00210220BF
:1019700000F07AFA2AE0032306AA0021022000F0F0
:1019800073FA23E0032305AA0021022000F06CFA79
:101990001CE0022304AA0021184600F065FA15E0B5
:1019A000022303AA0021184600F05EFA0EE002238B
:1019B00002AA0021184600F057FA07E0022301AA04
:1019C0000021184600F050FA00E000BF00BF09B047
:1019D00000BD000000010200030405000607080026
:1019E000090A0B000C0D0000101100001215000078
:1019F00013140000480200202DE9FC4105460E4664
:101A0000174606208DF800000A20514908718DF80C
:101A100004000620087086B1042D06DD0B463A4608
:101A20000D21042000F008FF05E0494B3A460D2146
:101A3000284600F001FFBDE8FC81042D03DD0326EC
:101A4000E81EC5B202E0681EC6B2012500247AE095
:101A50002819401E3F4931F8100042F2107190FBE6
:101A6000F1F0C0B28DF801002819401E394931F853
:101A7000100042F2107190FBF1F201FB12004FF4E2
:101A80007A7190FBF1F0C0B28DF802002819401E67
:101A9000304931F810004FF47A7190FBF1F201FBFC
:101AA0001200642190FBF1F0C0B28DF803002819F8
:101AB000401E284931F81000642190FBF1F201FB2F
:101AC00012000A2190FBF1F0C0B28DF80500281930
:101AD000401E204931F810000A2190FBF1F201FB71
:101AE0001200C0B28DF80600B44217D19DF8010073
:101AF000174948709DF8020088709DF80300C8706F
:101B00009DF8050048719DF806008871611CC8B2F7
:101B10006B463A460D2100F08FFE06E0611CC8B20C
:101B20006B4600220D2100F087FE2919491E01EBAA
:101B30004101094A8B18611CC8B20022142100F02F
:101B40007BFE601CC4B2042C82DB00BF73E7000084
:101B5000BA0200205402002035B400082DE9F041FB
:101B600006460D4617460F201D490870012D2AD044
:101B7000002426E01B48005D642190FBF1F0012168
:101B800001EB8401164A50541648005D642190FB15
:101B9000F1F201FB12000A2190FBF1F0022101EBAE
:101BA00084010F4A50540F48005D0A2190FBF1F266
:101BB00001FB1200032101EB8401094A5054601C0F
:101BC000C4B2042CD6DB0A200549087108720873D8
:101BD0000B463A460621304600F02EFEBDE8F08165
:101BE000BA0200208E0100202DE9F74F82B0814615
:101BF0008B464FF0000A05208DF80000BBF1000F66
:101C000075D0B9F1020F4CD194498879FEF71BFDCC
:101C100007463A460B4600204FF0804107F03EF859
:101C20000546FEF769FD82464FF416600AFB00F098
:101C30001FFA80FA42F210709AFBF0F08749487060
:101C400042F210709AFBF0F100FB11A04FF47A7190
:101C500090FBF1F0814988704FF47A709AFBF0F1B3
:101C600000FB11A0642190FBF1F07C49C870642056
:101C70009AFBF0F100FB11A00A2190FBF1F07749EB
:101C800008710A209AFBF0F100FB11A0734948711A
:101C90000B466F220C21022000F0CEFD05B0BDE8FE
:101CA000F08F6F484079102805D101210420049A53
:101CB000FFF754FFF2E76A484079112805D1012166
:101CC0000420049A00F03CF9E8E7B9F1040F06DDBE
:101CD000624B0C210420049A00F0AEFDDEE75F4B5E
:101CE0000C214846049A00F0A7FDD7E7FFE7B9F1B9
:101CF000040F06DD4FF0030BA9F1030000F0FF090C
:101D000005E0A9F1010000F0FF0B4FF001090024EC
:101D10009FE009EB040010280FD15C4506D1611C3F
:101D2000C8B20021049AFFF719FF05E0611CC8B290
:101D300000221146FFF712FF89E009EB0400112889
:101D40000FD15C4506D1611CC8B20021049A00F095
:101D5000F7F805E0611CC8B20022114600F0F0F867
:101D600075E009EB0400401E3E4931F8100042F2D4
:101D7000107190FBF1F0C0B28DF8010009EB040086
:101D8000401E384931F8100042F2107190FBF1F218
:101D900001FB12004FF47A7190FBF1F0C0B28DF8A4
:101DA000020009EB0400401E2E4931F810004FF4E8
:101DB0007A7190FBF1F201FB1200642190FBF1F0CB
:101DC000C0B28DF8030009EB0400401E254931F82C
:101DD0001000642190FBF1F201FB12000A2190FB3C
:101DE000F1F0C0B28DF8040009EB0400401E1D495B
:101DF00031F810000A2190FBF1F201FB1200C0B291
:101E00008DF805005C451AD1611CC8B26B460C21E7
:101E1000049A00F011FD9DF80000104908709DF82B
:101E2000010048709DF8020088709DF80300C8709A
:101E30009DF8040008719DF80500487106E0611CDA
:101E4000C8B26B4600220C2100F0F6FC00BF601CFB
:101E5000C4B2042CFFF65DAF00BF1FE7BA0200203A
:101E6000480200208E0200202DE9F84305460E4668
:101E7000174698462BA00068009000244DE02A48A1
:101E800040792044C0EBC00028490E5C26484079C8
:101E90001A2802D14FF0020901E04FF0030922484D
:101EA00040792044182802D14FF0040901E04FF096
:101EB0000309395D1E4B33F91120291908B24B462D
:101EC000314600F083F83A5DDFF868C01CF8022064
:101ED000DFF864C00CEB8203F21DD1B22A19D0B234
:101EE000002200F0A9FCB8F1030F14D1395D134BA7
:101EF00033F91120291908B2022306F1090109B2A8
:101F000000F064F806F11002D1B22A19D0B26B4683
:101F1000002200F091FC601CC4B24445AFDBBDE878
:101F2000F88300000121000048020020D8B1000819
:101F3000E001002092000020760000201402002022
:101F40002DE9F04106460D4617460F201D49087041
:101F5000012D2AD0002426E01B48005D642190FB5F
:101F6000F1F0012101EB8401164A50541648005D3E
:101F7000642190FBF1F201FB12000A2190FBF1F0C9
:101F8000022101EB84010F4A50540F48005D0A21E1
:101F900090FBF1F201FB1200032101EB8401094ADD
:101FA0005054601CC4B2042CD6DB0A2005490871C9
:101FB000087208730B463A460621304600F03CFC96
:101FC000BDE8F081BA020020840100202DE9FE4323
:101FD0000746884615461E46022407208DF8000055
:101FE000002D05DA20208DF80100684205B202E0DC
:101FF0001F208DF8010042F2107095FBF0F0C2B284
:102000002046611CCCB20DF8002042F2107095FB06
:10201000F0F100FB11504FF47A7190FBF1F0C2B275
:102020002046611CCCB20DF80020042E05D10A22F6
:102030002046611CCCB20DF800204FF47A7095FB5D
:10204000F0F100FB1150642190FBF1F0C2B2204688
:10205000611CCCB20DF80020032E05D10A222046C7
:10206000611CCCB20DF80020642095FBF0F100FB60
:1020700011500A2190FBF1F0C2B22046611CCCB293
:102080000DF80020022E05D10A222046611CCCB298
:102090000DF800200A2095FBF0F100FB1150C2B2B0
:1020A0002046611CCCB20DF800201F222046611C86
:1020B000CCB20DF8002008F0FF01F8B26B46002208
:1020C00000F0BAFBBDE8FE8310B5402000F010F828
:1020D00028B1402000F006F801200149087010BD29
:1020E000A30100200149086070470000140401406A
:1020F000014600200022074B1B6803EA0102054B42
:1021000014331B680B4013B10AB1012000E000201A
:102110007047000000040140002123498279002A11
:102120003AD00A46126803689A430B461A600A1DA1
:10213000126803689A430B1D1A60027911440A68F9
:1021400003681A430A60184A0832126803689A43FF
:10215000154B08331A601A1D126803689A43124B14
:102160000C331A604279102A0ED11A1F12680368C4
:102170001A430D4B08331A601A1D126803681A437C
:10218000094B0C331A600DE00749427911440A6883
:1021900003681A430A6005E0027911440A6803687B
:1021A0009A430A60704700000004014070B50A4974
:1021B0000888FEF732FA054629460848FEF75EF819
:1021C000044607492046FEF727F80546FEF761FA60
:1021D00000B20449888470BD4008004000C8AF497F
:1021E0000000C842E001002008B50121042000F0F1
:1021F000F7FE1E208DF8000000208DF80100012060
:102200008DF802008DF80300684600F043FE4FF49D
:1022100000700F490880E4200D4908310880102023
:10222000091D08804FF4824009491C310880881438
:10223000091D088031200649283108804FF6FF70BB
:10224000091D08800121024801F0EBFD08BD0000D6
:102250000008004030B500228B071C0F0F2303FA43
:1022600004F20B4B8C1053F824309343084C8D1020
:1022700044F8253023468C1053F824308C07240F63
:1022800000FA04F42343024C8D1044F8253030BD8D
:10229000080001402DE9F0410246002500260020FB
:1022A00000230024002791F803C00CF00F0591F8DB
:1022B00003C00CF0100CBCF1000F03D091F802C069
:1022C0004CEA050591F800C0BCF1000F31D014684C
:1022D00000202BE04FF0010C0CFA00F3B1F800C025
:1022E0000CEA03069E4220D183004FF00F0C0CFA3B
:1022F00003F7BC4305FA03FC4CEA040491F803C05D
:10230000BCF1280F06D14FF0010C0CFA00FCC2F80A
:1023100014C00AE091F803C0BCF1480F05D14FF09A
:10232000010C0CFA00FCC2F810C0401C0828D1D3E4
:102330001460B1F800C0BCF1FF0F34DD5468002018
:102340002EE000F1080C4FF0010808FA0CF3B1F888
:1023500000C00CEA03069E4221D183004FF00F0C0F
:102360000CFA03F7BC4305FA03FC4CEA040491F8A9
:1023700003C0BCF1280F05D100F1080C08FA0CF8D5
:10238000C2F8148091F803C0BCF1480F07D100F1E6
:10239000080C4FF0010808FA0CF8C2F81080401C35
:1023A0000828CED35460BDE8F081000008B50121B3
:1023B00040F2FD1000F034FE02208DF802001020E3
:1023C0008DF803000720ADF8000069468148FFF74B
:1023D00061FF2020ADF8000069467F48FFF75AFFF3
:1023E000C020ADF8000069467C48FFF753FF4FF46A
:1023F000E060ADF8000069467948FFF74BFF7020B8
:10240000ADF8000069467348FFF744FFFF20ADF8C0
:10241000000069467248FFF73DFF04208DF8030075
:102420002020ADF8000069466C48FFF733FF042018
:102430008DF803004FF46040ADF80000694669482C
:10244000FFF728FF04208DF80300C020ADF800003E
:1024500069466148FFF71EFF00208DF803003F200A
:10246000ADF8000069466048FFF714FF00208DF8C2
:102470000300CF20ADF8000069465C48FFF70AFF73
:1024800000208DF803000320ADF800006946534892
:10249000FFF700FF48208DF803004FF40070ADF8FF
:1024A000000069464D48FFF7F5FE10208DF8030047
:1024B0003C20ADF8000069464A48FFF7EBFE1020CB
:1024C0008DF803004FF47040ADF8000069464248B3
:1024D000FFF7E0FE48208DF803004FF47F40ADF891
:1024E000000069463B48FFF7D5FE03208DF8020047
:1024F00014208DF803004FF48070ADF80000694699
:102500003A48FFF7C7FE03208DF8020018208DF827
:1025100003004FF40070ADF8000069463348FFF740
:10252000B9FE03208DF8020004208DF8030000029C
:10253000ADF8000069462D48FFF7ACFE03208DF88A
:10254000020014208DF803004FF44060ADF8000045
:1025500069462248FFF79EFE2021224800F04AF8F3
:102560001021204800F046F808211E4800F042F8EB
:1025700004211C4800F03EF84FF40041164800F0DA
:1025800039F84FF48041144800F034F84FF400510A
:10259000114800F02FF84FF480510F4800F02AF84E
:1025A00004210C4800F026F802210A4800F022F825
:1025B0000121084800F01EF88021084800F01AF8B0
:1025C0004021064800F016F82021034800F012F8D8
:1025D00008BD00000018014000140140000C01403B
:1025E000001C014000200140001001400008014093
:1025F0004161704701617047C160704700BFFEE7ED
:102600002DE9F04104460E46154601F07DFE0746D1
:1026100017B13846BDE8F081A22001F043FE01F079
:10262000C3FE18B901F0A2FE0020F3E7304601F026
:1026300039FE01F0B9FE01F067FEA32001F032FE81
:1026400001F0B2FE0DE001F0FFFD20706420FEF706
:1026500087FD01F0B5FD6420FEF782FD641C681E55
:10266000C5B2012DEFD101F0EFFD207001F0CAFDE0
:1026700001F07CFE0020CDE72DE9F04104460D4637
:10268000164601F041FE074617B13846BDE8F08115
:10269000A02001F007FE01F087FE18B901F066FEE8
:1026A0000020F3E7C5F3072001F0FCFD01F07CFEFC
:1026B000E8B201F0F7FD01F077FE01F025FEA12060
:1026C00001F0F0FD01F070FE07E001F0BDFD2070AB
:1026D00001F076FD641C701EC6B2012EF5D101F02A
:1026E000B3FD207001F08EFD01F040FE0020CDE72B
:1026F0002DE9F04105460C46164629E001F004FE9E
:10270000074617B13846BDE8F081A22001F0CAFDA6
:1027100001F04AFE18B901F029FE0020F3E7204637
:1027200001F0C0FD01F040FE287801F0BBFD01F092
:102730003BFE6D1C601CC4B2062C02D1601CC4B2EE
:102740006D1C01F013FE0C20FEF71AFD701EC6B2C0
:10275000002ED3D10020D6E770B505460C461646AC
:10276000204607F05DFC13E004F03F0038B901F0AB
:10277000FDFD0620FEF704FD204607F051FC2878F9
:1027800001F090FD01F010FE6D1C641C701EC6B2BD
:10279000002EE9D101F0EAFD0620FEF7F1FC002051
:1027A00070BD10B502461046002801DA434218B247
:1027B00042F2107390FBF3F30B700B780BB91F23ED
:1027C00000E00B780B7042F2107390FBF3F403FB04
:1027D00014034FF47A7493FBF4F34B700B781F2BB4
:1027E00005D14B780BB91F2300E04B784B704FF4A9
:1027F0007A7390FBF3F403FB1403642493FBF4F368
:102800008B700A23CB70642390FBF3F403FB140357
:102810000A2493FBF4F30B710A2390FBF3F403FBFC
:1028200014034B7110BD00004AF6AA20014908604C
:1028300070470000003000402DE9FF5F8046914660
:102840001F46A8F1010000F0FF08019800EB4000CE
:1028500040064FEA106A002667E0B12101EB48010B
:10286000891BC8B200F04CF9002459E0002553E060
:102870000AEB050104EB440201EB420101F1010BFB
:102880004FEAEB710BEB117109111031C8B200F076
:1028900037F90AEB050104EB440201EB4201491C44
:1028A00001F00F0000F02CF9B9F16F0F10D13919B8
:1028B000497801EB41011F4A02EB810106EB460218
:1028C00005EB4202895CC943C8B200F047F921E038
:1028D000601C814510D13919497801EB4101154A35
:1028E00002EB810106EB460205EB4202895CC9431B
:1028F000C8B200F033F90DE03919497801EB410114
:102900000C4A02EB810106EB460205EB4202885CB1
:1029100000F024F9681CC5B2062DA9DB601CC4B206
:102920003878A042A2DC701CC6B2022E95DBBDE84E
:10293000FF9F00005EA000082DE9FF5F074690465C
:102940009946781EC7B2019800EB800101EBC000E8
:1029500000F0FF0A002667E0B12101EB4701891B67
:10296000C8B200F0CDF8002458E0002552E00AEB90
:10297000050104EB840202EBC402114401F1010BD6
:102980004FEAEB710BEB117109111031C8B200F075
:10299000B7F80AEB050104EB840202EBC402114410
:1029A000491C01F00F0000F0ABF8B8F1010F08D09E
:1029B000B8F1030F00D124B1B8F1040F16D1032CE4
:1029C00014D109EB0401497801EB810202EBC1014A
:1029D000174A02EB410106EB860202EBC6022A44CB
:1029E000895CC943C8B200F0B9F811E009EB0401F1
:1029F000497801EB810202EBC1010D4A02EB410172
:102A000006EB860202EBC6022A44885C00F0A6F8B8
:102A1000681CC5B20D2DAADB601CC4B299F8000079
:102A2000A042A2DC701CC6B2022E95DBBDE8FF9F5F
:102A30001AA2000810B510212F48FFF7D9FD202158
:102A40002D48FFF7D5FD2D48FEF78AFB20212A48A7
:102A5000FFF7D0FDE22000F053F80A20FEF780FBDC
:102A60002C2000F04DF80A20FEF77AFB2E2000F013
:102A700047F80A20FEF774FB2F2000F041F80A20E7
:102A8000FEF76EFB232000F03BF80A20FEF768FB00
:102A9000812000F035F82A2000F032F80A20FEF7F5
:102AA0005FFBA22000F02CF80A20FEF759FBC8209B
:102AB00000F026F80A20FEF753FBA02000F020F8D3
:102AC0000A20FEF74DFB602000F01AF80A20FEF7FE
:102AD00047FBA62000F014F8AF2000F011F80A2000
:102AE000FEF73EFBA42000F00BF80A20FEF738FBAF
:102AF00000F062F810BD000000180140A08601003F
:102B000070B5044600254FF480611248FFF770FD50
:102B10004FF400710F48FFF76BFD40210E48FFF79F
:102B200067FD4FF480710B48FFF764FDE0B240F49D
:102B3000807529460748FFF75FFD0A20FEF710FB66
:102B40004FF480710348FFF753FD40210248FFF71F
:102B500051FD70BD001C01400018014070B50446D5
:102B600000254FF480611248FFF744FD4FF40071D7
:102B70000F48FFF73DFD40210E48FFF739FD4FF4A8
:102B800080710B48FFF736FDE0B240F4A06529469E
:102B90000748FFF731FD0A20FEF7E2FA4FF4807193
:102BA0000348FFF725FD40210248FFF723FD70BDD4
:102BB000001C01400018014070B5002429E004F118
:102BC000B001C8B2FFF79CFF0120FEF7C9FA00264A
:102BD0001BE006F11001C8B2FFF792FF0A20FEF7D2
:102BE000BFFA00250DE02846FFF78AFF0A20FEF70E
:102BF000B7FA0020FFF7B2FF0A20FEF7B1FA681C0F
:102C0000C5B2102DEFDB701CC6B2092EE1DB601CD3
:102C1000C4B2082CD3DB70BDC0201F490870A820A7
:102C20004870082088700120C8701C48408C000A39
:102C30001B490870194890F8220048701748808C8A
:102C4000000A8870154890F82400C8700C201549B7
:102C5000087029204870AB2088707C20C870002044
:102C60000871012048710D48C08B000A0E49087098
:102C70000A48807F48700948008C000A887007481D
:102C800090F82000C870012008490870F6204870AC
:102C90000020074908707047800100208E02002044
:102CA00084010020880100208E0100209201002074
:102CB000A001002000BFFEE770B505460C460020CD
:102CC0006070287806281ED006DC022809D0032868
:102CD0000DD0052829D110E00C281AD0102824D1B5
:102CE0001DE02146284603F081FD60701EE021466C
:102CF000284603F0CDFB607018E02146284603F01B
:102D00004BFC607012E02146284600F0C8FA607063
:102D10000CE02146284600F0DDFD607006E021460B
:102D2000284603F097FC607000E000BF00BF2878E1
:102D3000207070BD00B591B00121880300F070F9DA
:102D400042484088B0F5166F0ED040484088B0F534
:102D5000965F09D03D484088B0F5165F04D03B48E7
:102D60004088B0F5964F03D1384840880D9002E076
:102D70004FF416500D900020ADF83800ADF83A0031
:102D8000ADF83C00ADF840000C20ADF83E000DA9B8
:102D90002F4801F081FC012240F224412C4801F02F
:102DA00055FC01212A4801F005FC4021284801F08A
:102DB000E9FB2848FEF702F92548001D0290264845
:102DC0000390002004904FF40070059000200690BE
:102DD0008020079000200890099020200A9000028F
:102DE0000B9000200C9002A91A48FEF79AF90122D4
:102DF00002211848FEF78CF9012208211548FEF738
:102E000087F901224021124801F0E0FB012111481D
:102E1000FEF7C8F825208DF8040001208DF8050084
:102E20008DF806008DF8070001A800F033F80F2098
:102E30008DF8040001208DF805008DF806008DF84E
:102E4000070001A800F026F811B000BD8E02002096
:102E50000038014058000240E8170020704708B5CC
:102E600000214FF0006000F057F84FF4C06000F010
:102E700049F81C208DF8000000208DF801008DF825
:102E8000020001208DF80300684600F003F801F00D
:102E900077FD08BD70B5002100230F22C47804B36C
:102EA000154C246804F4E064C4F5E064210AC1F11F
:102EB0000403CA40447804FA03F18478144021439F
:102EC00009010E4C0678A155047804F01F05012471
:102ED000AC4005786D11AD0005F1E025C5F8004165
:102EE00009E0047804F01F050124AC40044D067885
:102EF000761145F8264070BD0CED00E000E400E0DE
:102F000080E100E002490143024A1160704700007D
:102F10000000FA050CED00E0024A0A400243024BB1
:102F20001A60704780FFFF1F08ED00E07047000047
:102F300010B504464FF08040008800F0010030B129
:102F40004FF08040808C0C4921F814000BE00020E9
:102F50004FF0804188840121880700F062FF002043
:102F6000054921F814000120A040044909880843BC
:102F70000249088010BD00004A0000206C010020BA
:102F800070B504460649204600F0E4FA054600F014
:102F9000E5FE05462A460349204601F025FF70BD9F
:102FA000E8070020E80F002001460020034A50688F
:102FB00020F4404008435060704700000010024079
:102FC00029B1064A52690243044B5A6104E0034A9C
:102FD00052698243014B5A61704700000010024061
:102FE00029B1064AD2690243044BDA6104E0034A7C
:102FF000D2698243014BDA61704700000010024041
:1030000029B1064A12690243044B1A6104E0034ADB
:1030100012698243014B1A617047000000100240A0
:1030200029B1064A92690243044B9A6104E0034ABB
:1030300092698243014B9A61704700000010024080
:1030400029B1064AD2680243044BDA6004E0034A1D
:10305000D2688243014BDA607047000000100240E2
:1030600030B500210022002400232D4D6D6805F0AD
:103070000C0121B1042905D0082923D105E0294DEF
:10308000056022E0274D05601FE0254D6D6805F4C1
:103090007012234D6D6805F48034022505EB9242D1
:1030A0001CB9214D554305600BE01D4D6D6805F4BD
:1030B00000351DB11C4D5543056002E0194D5543C7
:1030C000056002E0174D056000BF00BF144D6D683C
:1030D00005F0F0010909154D6B5C0568DD404560A0
:1030E0000F4D6D6805F4E061090A104D6B5C456891
:1030F000DD4085600A4D6D6805F46051C90A0B4DCD
:103100006B5C4568DD40C560054D6D6805F4404168
:10311000890B074D6B5CC568B5FBF3F5056130BDE8
:103120000010024000127A0000093D00AC010020AE
:10313000BC01002010B501460022002300204A11E6
:10314000012A02D1094C236806E0022A02D1074C69
:10315000236A01E0054C636A01F01F0201249440D8
:103160001C400CB1012000E0002010BD0010024006
:103170001149096821F480310F4A1160114609682C
:1031800021F480211160B0F5803F03D0B0F5802F8D
:103190000ED106E00849096841F48031064A116001
:1031A00007E00549096841F4A021034A116000E0E5
:1031B00000BF00BF70470000001002400146002021
:1031C000034A506820F4E0600843506070470000F4
:1031D00000100240014908667047000000004242AA
:1031E00002460020044B586820F47C1042EA010398
:1031F0001843014B58607047001002400146002000
:10320000034A506820F003000843506070470000F4
:103210000010024038B5002000900024002500BFB7
:103220003120FFF787FF05460098401C009000986A
:10323000B0F5A06F01D0002DF2D03120FFF77AFF5A
:1032400008B1012400E00024204638BD10B5132247
:103250005A210248FFF710FA10BD00007A02002040
:1032600010B58AB026221E216846FFF705FA002411
:103270000DE0012000EB44001DF800101DF81400C3
:1032800001EB0020044921F81400601CC4B2132C87
:10329000EFDB0AB010BD000054020020704770B58B
:1032A00006460D46FFF7FAFF002403E0285D285587
:1032B000601CC4B2052CF9DB052070BD70B5054655
:1032C0004FF480710D48FFF795F900240CE00C488D
:1032D000015D0C4801F04CFA00BF8021094801F063
:1032E0007EF90028F9D0641CAC42F0DB00BF40211D
:1032F000044801F074F90028F9D070BD00080140BD
:10330000E81900200038014010B5022240F6B8311B
:103310000148FFF7B1F910BD0800002010B58CB0CE
:103320002C22012101A8FFF7A7F900240EE00120BB
:1033300000EB440001A9095C01A810F8140001EB9E
:103340000020044921F81400601CC4B2162CEEDBE6
:103350000CB010BD8E02002010B511491148FFF7C6
:10336000ABFC0F48401E807808B9002010BD0E4805
:1033700000780B49491E087008468078001D0C46ED
:10338000031908468078C01C021908468078C11CC1
:103390002046FDF7A3FD20468078401DE6E70000AB
:1033A000E9190020E91700208E02002010B5002442
:1033B0000DE00F4830F8140004EB84010D4A02EBD5
:1033C00001110D4A127841F82200601CC4B20E2C83
:1033D000EFDB09480078401C074908700846007870
:1033E000142803D10020087001F088FE10BD0000F1
:1033F000C4010020E80200207C010020F8B5064648
:1034000002208DF800005049087096B14F4840796D
:10341000042806DD0B46012207210420FFF78CFA61
:1034200006E04A494879484B01220721FFF784FA10
:10343000F8BD46484079042805DD03264348407915
:10344000001FC5B204E041484079401EC6B20025C5
:1034500000246DE02819042814D02819062811D05A
:10346000281908280ED028190A280BD028190C284A
:1034700008D028190F2805D02819102802D028199B
:1034800011281DD128193249085CAA2802D0CC285D
:103490000ED106E05C208DF801005D208DF8020061
:1034A0000DE05E208DF8010021208DF8020006E07D
:1034B00048208DF8010049208DF8020000BF1DE072
:1034C00028192349085CAA2802D0CC280ED106E08E
:1034D00045208DF801000D208DF802000DE04620FA
:1034E0008DF8010047208DF8020006E048208DF895
:1034F000010049208DF8020000BF00BFB4420ED188
:10350000611CC8B26B4600220721FFF715FA9DF82F
:1035100002000D4988709DF80100487006E0611CAA
:10352000C8B26B4600220721FFF706FA601CC4B23E
:1035300006488079042801DD042001E003488079F1
:10354000A04287DC00BF73E728000020480200206B
:103550007A0200202DE9F04780460D46262140469C
:1035600000F0DEF8064616B90020BDE8F08740F20C
:10357000B450864200DD06462821404600F0D0F8CF
:103580000746B946C7F30A074FF480513B48FFF797
:103590002FF8384600F0D2F9182101EB4811C8B2D3
:1035A00000F0B2F9364800F044FA00F0FF0AB8190A
:1035B000B0F5006F11DA00240CE0002000F0A4F94F
:1035C0002F4800F036FA00F0FF0A85F800A06D1CC5
:1035D000601C84B2B442F0DB3BE0C7F5006087B208
:1035E00000240CE0002000F08FF9254800F021FABB
:1035F00000F0FF0A85F800A06D1C601C84B2BC427C
:10360000F0DB4FF480511D48FEF7F4FF4FF480517A
:103610001A48FEF7EDFF002000F090F9182101EBA9
:103620004811C8B200F070F9154800F002FA00F035
:10363000FF0A0CE0002000F067F9114800F0F9F9EA
:1036400000F0FF0A85F800A06D1C601C84B2B44233
:10365000F0DB4FF480510948FEF7CCFF09EB060080
:103660001FFA80F94A462821404601F09BFC40227F
:103670000121404601F076FC304676E7000C01401F
:103680000038004070B504464FF480510D48FEF7F5
:10369000AFFF204600F052F9012000F035F90A484A
:1036A00000F0C7F9C5B2002000F02EF9064800F07E
:1036B000C0F9C5B24FF480510248FEF79BFF28467F
:1036C00070BD0000000C01400038004070B5044699
:1036D0000D464FF480511048FEF78AFF284600F04F
:1036E0002DF9082101EB4411C9B241F0010000F0AD
:1036F0000BF90A4800F09DF9C6B2002000F004F969
:10370000064800F096F9C6B24FF480510248FEF721
:1037100071FF304670BD0000000C014000380040D1
:1037200070B505460E464FF480511648FEF760FF0F
:10373000304600F003F9082101EB4511C9B241F010
:10374000020000F0E1F8104800F073F90446002090
:1037500000F0DAF80C4800F06CF90446002000F0A4
:10376000D3F84FF6FF7000EA0424074800F061F92F
:10377000204484B24FF480510248FEF73BFF2046BC
:1037800070BD0000000C0140003800401CB504462C
:103790001348007813490988884201D000201CBDD5
:1037A0001148FDF7B1FCC0F5007084B2A01E81B2D3
:1037B0006B4601AA0A48FDF791FBA01E0849085C68
:1037C0009DF80410884206D1601E0549085C9DF8EA
:1037D0000010884201D00020E1E70120DFE700006F
:1037E000E81700208E0200205800024008B545204E
:1037F0000090012200216846FEF73EFF9DF8000080
:103800000F2101EA20100C494978884207D19DF820
:10381000000000F00F0008498978884207D0064868
:103820004078082805D104488078082801D1012073
:1038300008BD0020FCE70000250000200EB509228D
:1038400000216846FEF7DCFE9DF8020000F00F0044
:103850001E4908729DF80200C0F30210C8719DF85D
:10386000030000F00F0048719DF80300C0F3021040
:1038700008719DF8040000F00F0088709DF80400A6
:10388000C0F3011048709DF8050000F00F001049CA
:1038900088729DF80500C0F3011048729DF807007A
:1038A00000F00F00C8719DF80700C0F30010887188
:1038B0009DF8080000F00F0008719DF8080000094D
:1038C000C87000208870022048700EBD1C000020C7
:1038D0001100002010B503460A4609480078012867
:1038E0000BD1002105E00748445C881C1454481C97
:1038F000C1B20F29F7DB0F2010BD0020FCE700004C
:103900000D000020CB02002010B5044600BF0221AC
:10391000094800F085F80028F9D02146064800F053
:103920008BF800BF0121044800F07AF80028F9D094
:10393000014800F07EF810BD0038004070B5044624
:103940002546E11704EB1161C1F30720FFF7DCFF07
:10395000E0B2FFF7D9FF70BD21B1028842F040020A
:10396000028004E002884FF6BF731A40028070475D
:1039700000B587B001218803FFF732FB0121092040
:10398000FFF74EFB4FF46040ADF8180003208DF8B0
:103990001A0018208DF81B0006A91F48FEF77AFCB4
:1039A0004FF460411C48FEF725FE4FF48050ADF8FF
:1039B000180003208DF81A0010208DF81B0006A9AE
:1039C0001548FEF767FC4FF480511348FEF712FECE
:1039D0000020ADF804004FF48270ADF8060000201E
:1039E000ADF80800ADF80A00ADF80C004FF4007017
:1039F000ADF80E000020ADF81000ADF81200072061
:103A0000ADF8140001A9054800F018F80121034899
:103A1000FFF7A2FF07B000BD000C014000380040D6
:103A20000246002013890B400BB1012000E000206A
:103A300070470146888970478181704710B5002220
:103A4000028802F441520B884C8823438C8823431C
:103A5000CC8823430C8923434C8923438C892343FB
:103A6000CC8923431A430280838B4FF2FF74234097
:103A700083830B8A038210BD7047000010B586B0A7
:103A80003220104908604FF48030FFF771FBFFF7D8
:103A9000C1FB0446012C10D14FF4E0110004FFF7E4
:103AA0009FFBE003FFF780FAA002FFF787FB0120EE
:103AB000FFF790FB0220FFF7A1FB01A8FFF7D0FA68
:103AC00006B010BD0020024010B500F001F810BD96
:103AD0000CB50020019000903348006840F480301D
:103AE0003149086000BF3048006800F400300090A1
:103AF0000198401C0190009818B90198B0F5A06F8A
:103B0000F1D12948006800F4003010B10120009084
:103B100001E0002000900098012843D1234800686C
:103B200040F01000214908600846006820F00300BA
:103B300008600846006840F0020008601A484068C3
:103B4000194948600846406848600846406840F4A3
:103B5000806048600846406820F47C104860084651
:103B6000406840F4E81048600846006840F0807003
:103B7000086000BF0C48006800F000700028F9D011
:103B80000948406820F0030007494860084640683B
:103B900040F00200486000BF0348406800F00C009D
:103BA0000828F9D10CBD000000100240002002409E
:103BB00010B5044601220021204601F0D3F901226C
:103BC0001146204601F0CEF90520FDF7CFFA03217A
:103BD0002046FFF77BFD132806D010220121204646
:103BE00001F0C0F9002010BD04220121204601F09F
:103BF000B9F9FF20F7E7000010B5044640F2B452CF
:103C00001221002001F0CEF9082C17D2DFE804F0D1
:103C1000040F1011121314150A484178007801EBB3
:103C2000002082B20421002001F0BCF907E006E088
:103C300005E004E003E002E001E000E000BF00BFB7
:103C400010BD00009201002010B5044601220021A1
:103C5000204601F087F901221146204601F082F941
:103C60000520FDF783FA03212046FFF72FFD1328D7
:103C700006D010220121204601F074F9002010BD69
:103C800002220121204601F06DF90520FDF76EFAB0
:103C900003212046FFF71AFD142806D01022012127
:103CA000204601F05FF90020E9E7FF20E7E710B5C3
:103CB000044602220021204601F054F90122114657
:103CC000204601F04FF90520FDF750FA0321204668
:103CD000FFF7FCFC222806D010220121204601F02B
:103CE00041F9002010BDFF20FCE7704710B51348D4
:103CF000006840F00100114908600846406810491A
:103D000008400E494860084600680E4908400B49C3
:103D100008600846006820F4802008600846406873
:103D200020F4FE0048604FF41F008860FFF7CCFECF
:103D30004FF000600449086010BD00000010024010
:103D40000000FFF8FFFFF6FE08ED00E010B5FFF7FA
:103D500086F8FFF70DFE00F011FD10BD10B51348F9
:103D60008079012801D0002010BD11490F48C01DE5
:103D7000FEF7A2FF0D4800780D49C91F08700B48D7
:103D8000407848700948807888700848C078C870C2
:103D90000648007908710846007AC01C4871012065
:103DA000887108464079801DDEE70000E8070020A2
:103DB000EF0F002010B50221034800F02FF8012179
:103DC0000248FDF778F810BD002C014000240140A6
:103DD00010B50121880700F033F901280DD1012128
:103DE000800700F01BF805480068401C0349086084
:103DF00003480068401C0249086010BDA40100206F
:103E0000A801002010B50120034908800020091FE7
:103E10000880FEF7CBF910BD14080040CA430282A7
:103E2000704721B1028842F00102028004E002885A
:103E30004FF6FE731A400280704731B1B0F844204B
:103E400042F40042A0F8442005E0B0F84420C2F358
:103E50000E02A0F84420704710B50446684884421A
:103E600008D10121C014FFF7EBF80021E014FFF79F
:103E7000E7F8C4E0B4F1804F08D101210846FFF70C
:103E8000BFF800210120FFF7BBF8B8E05D4884428D
:103E900008D101210220FFF7B3F800210220FFF72B
:103EA000AFF8ACE05848844208D101210420FFF764
:103EB000A7F800210420FFF7A3F8A0E053488442AC
:103EC00008D101210820FFF79BF800210820FFF707
:103ED00097F894E04E48844208D101211020FFF762
:103EE0008FF800211020FFF78BF888E049488442C2
:103EF00008D101212020FFF783F800212020FFF7BF
:103F00007FF87CE04448844208D101214014FFF747
:103F100097F800216014FFF793F870E03F4884425F
:103F200009D10121C804FFF78BF800214FF40020CC
:103F3000FFF786F863E03A48844209D10121080579
:103F4000FFF77EF800214FF48010FFF779F856E074
:103F50003448844209D101214805FFF771F8002156
:103F60004FF40010FFF76CF849E02F48844208D165
:103F700001214020FFF744F800214020FFF740F8DE
:103F80003DE02A48844208D101218020FFF738F81B
:103F900000218020FFF734F831E02548844208D121
:103FA00001218015FFF72CF80021A015FFF728F854
:103FB00025E02048844209D101210804FFF740F898
:103FC00000214FF48030FFF73BF818E01A48844294
:103FD00009D101214804FFF733F800214FF40030E4
:103FE000FFF72EF80BE01548844208D10121880420
:103FF000FFF726F800214FF48020FFF721F810BDCD
:10400000002C01400004004000080040000C00406B
:10401000001000400014004000340140004C0140FA
:10402000005001400054014000180040001C0040B6
:104030000020004000400140004401400048014091
:1040400030B50246002000230024158A05EA01034A
:10405000958905EA010413B10CB1012000E00020AC
:1040600030BD01894FF6F8721140018170470000A0
:1040700070B5002400220023058C4FF6FE763540F3
:104080000584028C8388048B4FF68F752C40B51EF7
:104090002C400D882C43751E2A400D892A434D88DB
:1040A0002A43144DA8420BD0134DA84208D0134DFB
:1040B000A84205D0124DA84202D0124DA84213D1F9
:1040C0004FF6F7752A404D892A434FF6FB752A4073
:1040D0008D882A434FF6FF652B404FF6FF552B4046
:1040E0008D892B43CD892B4383800483CD8885869E
:1040F000028470BD002C01400034014000400140AA
:104100000044014000480140002202881D4B9842B3
:104110000ED01D4B98420BD0B0F1804F08D01B4BF6
:10412000984205D01A4B984202D01A4B984204D1BB
:104130004FF68F731A404B881A43174B984207D09B
:10414000164B984204D04FF6FF431A40CB881A43CF
:1041500002808B8883850B8803850A4B98420BD09D
:10416000094B984208D00E4B984205D00D4B98420F
:1041700002D00D4B984201D10B7A03860123838232
:1041800070470000002C0140003401400004004052
:1041900000080040000C00400010004000140040E7
:1041A0000040014000440140004801404FF6FF71CB
:1041B000818000210180C180418001727047000030
:1041C00010B54FF480600E4908606420FCF7C8FF0A
:1041D0004FF400600A4908606420FCF7C1FF4FF407
:1041E00080600749091F08606420FCF7B9FF4FF49D
:1041F0008060034908606420FCF7B2FF10BD000036
:10420000140C014010B54FF480600E490860642022
:10421000FCF7A6FF4FF400600A49091F08606420FC
:10422000FCF79EFF4FF480600649091F0860642078
:10423000FCF796FF4FF48060024908606420FCF7A9
:104240008FFF10BD140C014070B508250024280212
:104250001349086018E06006040E4FF480601049AE
:10426000091D08606420FCF77BFF4FF480600C4957
:1042700008606420FCF774FF09480838006800F4FF
:10428000006008B144F00104281EA5F10101CDB27F
:10429000E1D14FF480600249091D0860204670BDDD
:1042A000100C014070B50446082520E04FF48060F2
:1042B000144908606420FCF753FF04F0800028B123
:1042C0004FF400600F49091F086003E04FF40060DD
:1042D0000C4908606006040E6420FCF741FF4FF4AF
:1042E00080600849091F08606420FCF739FF281E18
:1042F000A5F10101CDB2D9D14FF480600149086028
:1043000070BD0000140C014010B54FF40060164958
:104310000860401008606420FCF722FF124808384B
:10432000006808B9012000E0002000F4006008B136
:10433000012010BD4FF400600B49091D0860642086
:10434000FCF70EFF08480838006800F4006008B168
:104350000220EEE74FF480600349091D08606420E5
:10436000FCF7FEFE0020E4E7100C014010B54FF40E
:1043700000600C490860401008606420FCF7F0FE03
:104380004FF480600749091F08606420FCF7E8FECD
:104390004FF400600349091F08606420FCF7E0FE49
:1043A00010BD0000140C014010B54FF4806013499B
:1043B00008606420FCF7D4FE4FF400600F49091F29
:1043C00008606420FCF7CCFE4FF480600B49091FA5
:1043D00008606420FCF7C4FE08480C38006800F44C
:1043E000006028B14FF4806004490860002010BDCF
:1043F0004FF48060014908600120F8E7140C014087
:1044000010B508210A48FEF7F3F804210848FEF722
:10441000EFF84FF400410748FEF7EAF8202105487D
:10442000FEF7E6F84FF480410248FEF7E1F810BDD0
:10443000002001400014014010B508210648FEF795
:10444000D9F804210448FEF7D5F84FF40041034899
:10445000FEF7D0F810BD000000200140001401401C
:104460002DE9F04180460C4615461A48006800F0D8
:10447000080008B1012600E000261648006800F494
:10448000005008B1012700E00027200A12490873F4
:104490004C73AA2D03D116B1FFF7B2FF0FE0CC2D5C
:1044A0000BD157B14FF400510A480C38FEF7A0F871
:1044B00040210A48FEF79CF801E0BDE8F08106487B
:1044C00080F8098002200449087200F0D3FA00BF86
:1044D000F3E700000C140140CB020020000C014067
:1044E00070B502212348FEF783F840F224412248A8
:1044F00000F082F840B300212048FCF753FD1F482C
:10450000FCF702FEC0F5007084B22046FFF73EF9CA
:1045100020B1FEF721FF0546FEF7D0FE4FF4807173
:104520001748FEF765F84FF47020FCF71FFD4FF4B5
:10453000007012495839C86501211048FCF732FD56
:104540000D480488001D04884FF45A710A4800F091
:1045500053F820B14FF45A71074800F01CF840F2AC
:104560002441054800F017F802210248FEF742F8FE
:1045700070BD0000001801400038014058000240A2
:104580000008014001F40072B2F5007F00D100BFC5
:10459000CA430280704710B50022002340F66A1417
:1045A000A14200D100BF0A1201249440A3B2DC430F
:1045B000048010BD21B1828942F40052828104E05E
:1045C00082894DF6FF731A40828170471AB1838A3F
:1045D0000B43838202E0838A8B43838270470246C7
:1045E0000020B1F5007F00D100BF13880B400BB154
:1045F000012000E00020704770B50246002400232F
:104600000025002040F66A16B14200D100BFC1F378
:10461000421501F01F03012606FA03F3012D02D112
:104620009689334006E0022D02D1168A334001E01C
:10463000968A33400C12012606FA04F41688344098
:1046400013B10CB1012000E0002070BDF0B50346AD
:10465000002400260025002040F66A17B94200D148
:1046600000BF1846C1F3421401F01F06012707FAE4
:1046700006F5012C01D10C3004E0022C01D11030E0
:1046800000E014301AB107682F43076002E00768A2
:10469000AF430760F0BD00002DE9F04786B0054646
:1046A0000E460024A24600BFA1460027B08900B1F3
:1046B00000BF2F462C8A4CF6FF700440F08804435C
:1046C0002C82AC894EF6F3100440B088318908433F
:1046D000718908430443AC81AC8A4FF6FF40044023
:1046E000B0890443AC8201A8FEF7BAFC1F48874298
:1046F00002D1DDF810A001E0DDF80CA0A88900F4DB
:10470000004040B10AEBCA0000EB0A1031684900D2
:10471000B0FBF1F807E00AEBCA0000EB0A103168C1
:104720008900B0FBF1F86420B8FBF0F00401200927
:10473000642101FB1089A88900F4004040B13220B7
:1047400000EBC900B0FBF1F000F00700044308E003
:10475000322000EB09106421B0FBF1F000F00F00F3
:1047600004432C8106B0BDE8F0870000003801400A
:10477000C1F308028280704700BFFEE70EB54FF418
:104780008070ADF8080001208DF80A0010208DF827
:104790000B0002A91348FDF77DFD4FF4807111480D
:1047A000FDF726FF4020ADF8080003208DF80A0031
:1047B00048208DF80B0002A90B48FDF76BFD062180
:1047C0000220FDF747FD4020009000208DF80400F6
:1047D0000C208DF8050001208DF806006846FDF7D5
:1047E0009BFC0EBD001401400010014010B54FF4B9
:1047F00080710748FDF7FCFE3220FCF7B7FC4FF450
:1048000080710348FDF7F6FEC820FCF7AFFC10BD31
:104810000014014010B500248021002000F06EFB40
:104820000A20FCF7A3FC04221C49012000F006FC2E
:1048300004221B49052000F001FC06221949092029
:1048400000F0FCFB042218490F2000F0F7FB00BF2A
:104850000BE002221E21204600F084FB02221F21D1
:10486000204600F07FFB601CC4B2082CF1DB4FF443
:10487000FA61192000F05CFB08211B2000F03EFBD0
:10488000C021162000F03AFB0121182000F036FB71
:104890001F222C21002000F065FB10BD80010020AC
:1048A00084010020880100208E01002010B5FFF750
:1048B000B1FF0020FFF7A0F910BD000070B500BFE8
:1048C00000202C4908701520FEF7DCFE054605F097
:1048D000F001152000F012FB1720FEF7D3FE05466D
:1048E00005F0010000283FD002210020FEF7EEFE77
:1048F000044622460221002000F034FB04F00100AF
:1049000028B11D48007840F002001B49087004F0EF
:10491000020060B110220121002000F023FB0020E2
:10492000FFF76AF900201449087000F039F804F024
:10493000100028B11148007840F002000F490870BB
:1049400004F0040028B10D48007840F001000B4944
:10495000087004F0080038B110220121002000F096
:1049600001FB0020044908701720FEF78BFE00B100
:10497000A6E770BDA3010020A1010020A201002034
:1049800008B517208DF8000000208DF801000120E7
:104990008DF802008DF803006846FEF77BFA08BD2B
:1049A00010B518480078F8B91748007860B90020A9
:1049B000FFF74AF9FF2803D101201249087020E0CF
:1049C0000020104908701CE00F48007801280CD125
:1049D0000020FFF7EDF8FF2803D1012009490870F6
:1049E0000FE00020074908700BE00020FFF75FF997
:1049F000FF2803D103200349087002E00020014989
:104A0000087010BDA1010020A001002038B5174892
:104A1000407842F2107148431449897801EB410211
:104A2000C2EBC11100EBC1001049C97801EBC10212
:104A300002EB011100EB81000C49497901EB810186
:104A400000EB4100094989794418200A8DF80000DB
:104A5000E0B28DF80100064840791C2202EB4001CB
:104A600002226846FDF778FE38BD0000BA02002039
:104A7000480200200EB544480088000A4349C87324
:104A800041480078087440484088000A48743E480D
:104A9000807888743C488088000AC8743A48007955
:104AA00008753948408A000A48753748807C8875FF
:104AB0003548808A000AC8753348007D0876324838
:104AC000C08A000A48763048807D88760922002115
:104AD0006846FDF795FD9DF808002C4908709DF883
:104AE000070000F01F0048709DF8050000F03F002F
:104AF00088709DF8040000F03F00C8709DF8030026
:104B000000F07F0008719DF8020000F07F004871FE
:104B10001F480078402803DA1D480078401C00E058
:104B200040201B49087008464078402803DA0846B0
:104B30004078401C00E0012015494870022240F6F0
:104B4000B8311348FDF708FE1148407800EBC0006B
:104B500000EB400000F69F311B220C48FDF7FCFDE6
:104B600001200C4908700848B0F9060040F08000A8
:104B70000549C8800848007828B90020074908700E
:104B80006F20FCF753FB0EBDE0010020CB0200209C
:104B9000080000200D000020100000200C00002064
:104BA00010B586B07448407910284AD173484078CF
:104BB000642148437149897801EB810100EB410090
:104BC0006E49C97808446E4908706C484079642180
:104BD00048436A49897901EB810100EB410067494B
:104BE000C9790844664948706448407A642148435A
:104BF0006249897A01EB810100EB41005F49C97A82
:104C000008445F4988705D48407B642148435B49A4
:104C1000897B01EB810100EB41005849C97B0844C5
:104C20005749C870544840790122C2EB4001042220
:104C30005348FDF791FDFEF771FBFCF76BF906B0E9
:104C400010BD4D48407911284AD14C484078642124
:104C500048434A49897801EB810100EB410047490B
:104C6000C97808444749087044484079642148435A
:104C70004249897901EB810100EB41003F49C97943
:104C80000844404948703D48407A642148433B49C4
:104C9000897A01EB810100EB41003849C97A084467
:104CA000384988703548407B642148433349897BC3
:104CB00001EB810100EB41003049C97B08443149D7
:104CC000C8702D484079401C0122C2EB40010422EB
:104CD0002C48FDF741FDFEF721FBFCF71BF9AEE781
:104CE0002648407842F2107148432449897801EB04
:104CF0004102C2EBC11100EBC1002049C97801EBB0
:104D0000C10202EB011100EB81001C49097901EBA2
:104D1000810100EB4100194949794418200A8DF8B6
:104D20000400E0B28DF80500134840790122C2EB7F
:104D30004001022201A8FDF70FFD0F48407902282B
:104D400018D100211048FFF735FC0020ADF80C0009
:104D5000ADF80E00ADF81000ADF814000C20ADF861
:104D60001200029402A90848FFF796FC01210648A8
:104D7000FFF720FC00BF62E748020020BA020020D3
:104D80008E010020840100200038014008B5FF207A
:104D900000900B484078452803D0094840785C28AB
:104DA00002D1AA20009001E0CC2000900548407973
:104DB00000F1590101226846FDF7CEFC08BD000054
:104DC000280000204802002008B506488178407875
:104DD00001EB0010C0B20090012200216846FDF7EF
:104DE000BBFC08BD250000202DE9F04707460D4615
:104DF000904600213846FEF769FC00F00F0022289B
:104E00000ED03B4A0C21384600F0ECF83948417886
:104E1000007801EB002082B21021384600F0C2F881
:104E200024213846FEF77CFC0646B146C6F30A0646
:104E30004FF480513048FDF7DBFB3046FEF77EFD36
:104E4000102101EB4711C9B241F00400FEF75CFDEF
:104E500006EB0800B0F5006F0ADA002405E015F84B
:104E6000010BFEF751FD601C84B24445F7DB2AE0DC
:104E7000C6F5006086B2002405E015F8010BFEF7C8
:104E800043FD601C84B2B442F7DB4FF480511A48F2
:104E9000FDF7B0FB4FF480511748FDF7A9FB002048
:104EA000FEF74CFD102101EB4711C9B241F004009F
:104EB000FEF72AFD05E015F8010BFEF725FD601C45
:104EC00084B24445F7DB4FF480510B48FDF792FB69
:104ED00009EB08001FFA80F94A462421384600F001
:104EE00061F820220121384600F03CF8BDE8F08747
:104EF0009A0100209E010020000C014070B505467B
:104F00000C464FF480510948FDF772FB2846FEF726
:104F100015FD0520FEF7F8FC2046FEF7F5FC4FF4E2
:104F200080510248FDF766FB70BD0000000C014097
:104F300070B505460C464FF480510948FDF758FB03
:104F40002846FEF7FBFC0620FEF7DEFC2046FEF7B7
:104F5000F5FC4FF480510248FDF74CFB70BD00009A
:104F6000000C014070B504460D4616464FF48051C2
:104F70000B48FDF73DFB2846FEF7E0FC082101EB5E
:104F80004411C9B241F00500FEF7BEFC3046FEF701
:104F9000BBFC4FF480510248FDF72CFB70BD0000B4
:104FA000000C014070B504460D4616464FF4805182
:104FB0000B48FDF71DFB2846FEF7C0FC082101EB5E
:104FC0004411C9B241F00600FEF79EFC3046FEF7E0
:104FD000B5FC4FF480510248FDF70CFB70BD00009A
:104FE000000C014070B505460E4614464FF4805142
:104FF0001148FDF7FDFA3046FEF7A0FC082101EB51
:105000004511C9B241F00700FEF77EFC14F8010B10
:10501000FEF77AFC14F8010BFEF776FC14F8010B8E
:10502000FEF772FC14F8010BFEF76EFC4FF4805192
:105030000148FDF7DFFA70BD000C01402DE9F04199
:1050400007460C4615464FF480510D48FDF7D0FA3F
:105050003846FEF773FC0420FEF756FC002605E0F8
:1050600014F8010BFEF750FC701C86B2AE42F7DB61
:105070004FF480510248FDF7BDFABDE8F081000011
:10508000000C01400EB51B48017AC07901EB0010FD
:10509000C0B28DF8020017484179007901EB001089
:1050A000C0B28DF8030013488178407801EB0010FE
:1050B000C0B28DF804001048817A407A01EB0010EC
:1050C000C0B28DF805000C48C179807901EB001061
:1050D000C0B28DF8070008480179C07801EB0010D4
:1050E000C0B28DF80800072202210DF10200FDF781
:1050F000FFFA0EBD1C0000201100002000B59DB07D
:1051000000201B901A90199012901290FEE300203C
:105110001B901A90149039E0129800EB8000FC4923
:1051200001EB0011149851F820000F90FBF76CFA76
:10513000F8491090149851F8200001460F901098EB
:10514000FBF76AF811901B99FBF70EF81B90129869
:1051500000EB8000EE4901EB0011149851F820009B
:105160000F90FBF751FAEC491090149851F8200079
:1051700001460F901098FBF74FF811901A99FAF723
:10518000F3FF1A901498401CC0B21490149814287D
:10519000C2DBDDE91A01FBF771F80B90FBF7C5FAEA
:1051A000CDE90C0101F0BEFF4FF03332DB4BCDE90E
:1051B0000E01FBF748F9CDE91001FBF7F9FA199058
:1051C00000211B98FBF710FB04D2D5491998FAF778
:1051D000CBFF199000211A98FBF706FB09D200219A
:1051E0001B98FBF70BFB04D2CE491998FAF7BCFFCA
:1051F00019901998FBF734FA01B2CB4A129822F8A9
:10520000101012980C2850D2DFE800F09A5006FDDA
:10521000FCE4FBFAF9F8F7F6C44880890F90FBF735
:10522000FCF910901B99FAF7F7FFC1491190FBF7B1
:1052300025F81B90BD4880890F90FBF7EEF9109080
:105240001A99FAF7E9FFBA491190FBF717F81A9083
:105250001A990846FAF7E0FF0A901B990846FAF7F0
:10526000DBFF09900A99FAF77FFF0B90FBF75DFAD5
:10527000CDE90C0104F08CFEAE4AAF4BCDE90E0136
:10528000FBF7E1F8CDE91001FBF717FA00B2AB49E3
:1052900048810846B0F90A00052806DA002048814E
:1052A0004FF07E501B9000201A903AE39F484089AF
:1052B0000F90FBF7B2F910901B99FAF7ADFF9C49DC
:1052C0001190FAF7DBFF1B90984840890F90FBF78D
:1052D000A4F910901A99FAF79FFF95491190FAF7DF
:1052E000CDFF1A901A990846FAF796FF0A901B9973
:1052F0000846FAF791FF09900A99FAF735FF0B90E3
:10530000FBF713FACDE90C0104F042FE894A8A4BFF
:10531000CDE90E01FBF797F8CDE91001FBF7CDF9C8
:1053200000B2864908810846B0F90800052806DA67
:10533000002008814FF07E501B9000201A90F0E270
:105340007A4800890F90FBF768F910901B99FAF7DB
:1053500063FF77491190FAF791FF1B90734800891A
:105360000F90FBF75AF910901A99FAF755FF704908
:105370001190FAF783FF1A901A990846FAF74CFF32
:105380000A901B990846FAF747FF09900A99FAF71D
:10539000EBFE0B90FBF7C9F9CDE90C0104F0F8FD29
:1053A000644A654BCDE90E01FBF74DF8CDE91001DC
:1053B000FBF783F900B26149C8800846B0F90600DE
:1053C000052806DA0020C8804FF07E501B90002090
:1053D0001A90A6E25548408A0F90FBF71EF91090EC
:1053E0001B99FAF719FF52491190FAF747FF1B90E2
:1053F0004E48408A0F9007E031E14FE2EEE0B9E11C
:105400006EE101E239E09FE0FBF707F910901A998D
:10541000FAF702FF46491190FAF730FF1A901A99ED
:105420000846FAF7F9FE0A901B990846FAF7F4FEC7
:1054300009900A99FAF798FE0B90FBF776F9CDE9F7
:105440000C0104F0A5FD3E4A3E4BCDE90E01FAF7F2
:10545000FAFFCDE91001FBF730F900B23749888037
:105460000846B0F90400052806DA002088804FF0CD
:105470007E501B9000201A9053E22C48008A0F9017
:10548000FBF7CBF810901B99FAF7C6FE284911904C
:10549000FAF7F4FE1B902548008A0F90FBF7BDF841
:1054A00010901A99FAF7B8FE21491190FAF7E6FE22
:1054B0001A901A990846FAF7AFFE0A901B99084607
:1054C000FAF7AAFE09900A99FAF74EFE0B90FBF73D
:1054D0002CF9CDE90C0104F05BFD194A194BCDE91B
:1054E0000E01FAF7B0FFCDE91001FBF7E6F800B2C4
:1054F000124948800846B0F90200052806DA002063
:1055000048804FF07E501B9000201A9009E2000066
:10551000E802002080B50008D0B5000833E78140DC
:105520000000E14400006145140200208E020020CA
:1055300000007A444C37894160E5E03FE0010020FB
:10554000894160E5D022AB3FFE48C0890F90FBF750
:1055500064F810901B99FAF75FFEFB491190FAF777
:105560008DFE1B90F748C0890F90FBF756F81090FE
:105570001A99FAF751FEF4491190FAF77FFE1A9042
:105580001A990846FAF748FE0A901B990846FAF756
:1055900043FE09900A99FAF7E7FD0B90FBF7C5F86F
:1055A000CDE90C0104F0F4FCE84AE94BCDE90E0129
:1055B000FAF749FFCDE91001FBF77FF800B2E549A2
:1055C00008800846B0F90000052806DA00200880A7
:1055D0004FF07E501B9000201A90A2E1D948408BDA
:1055E0000990FBF730F8CDE90C011A990846FAF753
:1055F00013FE04901B990846FAF70EFE03900499D7
:10560000FAF7B2FD0590FBF790F8CDE9060104F03A
:10561000BFFCCE4ACE4BCDE90801FAF714FFCDE925
:105620000A01DDE90C23FAF70EFF0022CA4BCDE98F
:105630000E01FAF77AFFCDE91001FBF73EF800B250
:10564000C44908830846B0F91800052806DA002086
:1056500008834FF07E501B9000201A9061E1B948FA
:10566000008D0990FAF7EFFFCDE90C011A99084671
:10567000FAF7D2FD04901B990846FAF7CDFD039086
:105680000499FAF771FD0590FBF74FF8CDE9060193
:1056900004F07EFCAD4AAE4BCDE90801FAF7D3FE2B
:1056A000CDE90A01DDE90C23FAF7CDFE0022AA4B71
:1056B000CDE90E01FAF739FFCDE91001FAF7FDFF48
:1056C00000B2A44988830846B0F91C00052806DA10
:1056D000002088834FF07E501B9000201A9020E11C
:1056E0009848C08A0F90FAF798FF10901B99FAF724
:1056F00093FD95491190FAF7C1FD1B909148C08A1E
:105700000F90FAF78AFF10901A99FAF785FD8E49E3
:105710001190FAF7B3FD1A901A990846FAF77CFD32
:105720000A901B990846FAF777FD09900A99FAF74B
:105730001BFD0B90FAF7F9FFCDE90C0104F028FCF2
:10574000864A874BCDE90E01FAF77DFECDE91001BF
:10575000FAF7B3FF00B27F49C8810846B0F90E00DE
:10576000142806DA0020C8814FF07E501B900020DC
:105770001A90D6E07348008B0F90FAF74EFF109006
:105780001B99FAF749FD70491190FAF777FD1B90C4
:105790006C48008B0F90FAF740FF10901A99FAF7B7
:1057A0003BFD69491190FAF769FD1A901A9908466C
:1057B000FAF732FD0A901B990846FAF72DFD099079
:1057C0000A99FAF7D1FC0B90FAF7AFFFCDE90C017B
:1057D00004F0DEFB614A624BCDE90E01FAF733FEBD
:1057E000CDE91001FAF769FF00B25A49088208466C
:1057F000B0F91000142806DA002008824FF07E501D
:105800001B9000201A908CE04E48808A0F90FAF787
:1058100004FF10901B99FAF7FFFC4B491190FAF71F
:105820002DFD1B904748808A0F90FAF7F6FE1090E6
:105830001A99FAF7F1FC44491190FAF71FFD1A90F2
:105840001A990846FAF7E8FC0A901B990846FAF7F5
:10585000E3FC09900A99FAF787FC0B90FAF765FFC9
:10586000CDE90C0104F094FB3C4A3D4BCDE90E011F
:10587000FAF7E9FDCDE91001FAF71FFF00B235494B
:1058800088810846B0F90C00142806DA00208881C7
:105890004FF07E501B9000201A9042E02948808BE8
:1058A0000990FAF7D0FECDE90C011A990846FAF7EB
:1058B000B3FC04901B990846FAF7AEFC03900499D8
:1058C000FAF752FC0590FAF730FFCDE9060104F033
:1058D0005FFB224A224BCDE90801FAF7B4FDCDE97E
:1058E0000A01DDE90C23FAF7AEFD00221A4BCDE9DF
:1058F0000E01FAF71AFECDE91001FAF7DEFE00B24A
:10590000144948830846B0F91A0000E030E0142832
:1059100006DA002048834FF07E501B9000201A903A
:1059200000BF00BF1B98FAF79BFE0E49129A41F880
:1059300022001A98FAF794FE0A495031129A41F857
:10594000220011E08E02002000007A44894160E5C7
:10595000D022AB3FE001002000408F40C3F5285C1F
:105960008FC2E13F480700201298401CC0B212903D
:1059700012980E28FFF6CBABFE48B0F90C00FE499A
:105980000860FC48B0F900004860FA48C088F9494E
:105990000880F948808800B2C8800846B0F9020043
:1059A000F5494860F3480089F2494880F248808808
:1059B00000B208810846B0F90400EF494860ED489C
:1059C0004089EC498880EC48808800B24881EA48E8
:1059D000D0F87814D0F87C04081A1190FAF714FE65
:1059E0001B90E548D0F8C814D0F8CC04081A1190E0
:1059F000FAF70AFE1A901A990846FAF70DFC0A906F
:105A00001B990846FAF708FC09900A99FAF7ACFBCB
:105A10000B90FAF78AFECDE90C0104F0B9FAD74AE7
:105A2000D74BCDE90E01FAF70EFDCDE91001FAF7DB
:105A3000BFFE19901998FAF713FE00B2D1494882B7
:105A4000DDE91A01FAF71AFC0B90FAF76EFECDE9C0
:105A50000C0101F067FB4FF03332CB4BCDE90E0167
:105A6000FAF7F1FCCDE91001FAF7A2FE1990002136
:105A70001B98FAF7B9FE04D2C4491998FAF774FBD7
:105A8000199000211A98FAF7AFFE09D200211B984D
:105A9000FAF7B4FE04D2BE491998FAF765FB1990DB
:105AA0001998FAF7DDFD00B2B2494882B248D0F841
:105AB0007C14D0F88004081A1190FAF7A5FD1B9009
:105AC000AD48D0F8CC14D0F8D004081A1190FAF7E9
:105AD0009BFD1A901A990846FAF79EFB0A901B99AB
